:020000040800F2
:10000000002000201D0C0008E5050008E705000899
:1000100000000000000000000000000000000000E0
:10002000000000000000000000000000E9050008DA
:100030000000000000000000EB050008ED050008CE
:100040006D0C00086D0C00086D0C00086D0C0008AC
:100050006D0C000811050008210500086D0C000852
:100060006D0C00086D0C00086D0C00086D0C00088C
:100070006D0C00086D0C00086D0C00086D0C00087C
:100080006D0C00086D0C0008000000006D0C0008ED
:100090006D0C0008D10400086D0C00086D0C000800
:1000A0006D0C00086D0C00086D0C00086D0C00084C
:1000B0006D0C0008000000006D0C0008000000003E
:1000C00010B5064C2378002B07D1054B002B02D02E
:1000D000044800E000BF0123237010BD1000002081
:1000E00000000000C80C0008044B10B5002B03D022
:1000F0000349044800E000BF10BDC04600000000F6
:1001000014000020C80C0008002243088B4274D35E
:1001100003098B425FD3030A8B4244D3030B8B4208
:1001200028D3030C8B420DD3FF22090212BA030C11
:100130008B4202D31212090265D0030B8B4219D3F2
:1001400000E0090AC30B8B4201D3CB03C01A524112
:10015000830B8B4201D38B03C01A5241430B8B425A
:1001600001D34B03C01A5241030B8B4201D30B0343
:10017000C01A5241C30A8B4201D3CB02C01A52416A
:10018000830A8B4201D38B02C01A5241430A8B422D
:1001900001D34B02C01A5241030A8B4201D30B0216
:1001A000C01A5241CDD2C3098B4201D3CB01C01A30
:1001B000524183098B4201D38B01C01A524143093A
:1001C0008B4201D34B01C01A524103098B4201D328
:1001D0000B01C01A5241C3088B4201D3CB00C01A95
:1001E000524183088B4201D38B00C01A524143080D
:1001F0008B4201D34B00C01A5241411A00D2014632
:10020000524110467047FFE701B5002000F0F0F8BA
:1002100002BDC0460029F7D076E7704703460B437E
:100220007FD4002243088B4274D303098B425FD3EF
:10023000030A8B4244D3030B8B4228D3030C8B421B
:100240000DD3FF22090212BA030C8B4202D3121201
:10025000090265D0030B8B4219D300E0090AC30BD6
:100260008B4201D3CB03C01A5241830B8B4201D383
:100270008B03C01A5241430B8B4201D34B03C01A6C
:100280005241030B8B4201D30B03C01A5241C30AE4
:100290008B4201D3CB02C01A5241830A8B4201D355
:1002A0008B02C01A5241430A8B4201D34B02C01A3F
:1002B0005241030A8B4201D30B02C01A5241CDD2E4
:1002C000C3098B4201D3CB01C01A524183098B422F
:1002D00001D38B01C01A524143098B4201D34B0118
:1002E000C01A524103098B4201D30B01C01A52417B
:1002F000C3088B4201D3CB00C01A524183088B4202
:1003000001D38B00C01A524143088B4201D34B00EA
:10031000C01A5241411A00D201465241104670475C
:100320005DE0CA0F00D04942031000D34042534061
:1003300000229C4603098B422DD3030A8B4212D321
:10034000FC22890112BA030A8B420CD38901921153
:100350008B4208D3890192118B4204D389013AD090
:10036000921100E08909C3098B4201D3CB01C01A65
:10037000524183098B4201D38B01C01A5241430978
:100380008B4201D34B01C01A524103098B4201D366
:100390000B01C01A5241C3088B4201D3CB00C01AD3
:1003A000524183088B4201D38B00C01A5241D9D2EB
:1003B00043088B4201D34B00C01A5241411A00D26C
:1003C0000146634652415B10104601D34042002B68
:1003D00000D54942704763465B1000D3404201B5E7
:1003E000002000F005F802BD0029F8D016E770479C
:1003F0007047C04610B588B01422002103A800F051
:1004000036FC1C4B5A698021C9020A435A615A6959
:100410000A400192019A5A69802189020A435A616D
:100420005B690B400293029BFF2303930124049416
:1004300003A9114800F084F90F23039384239B033D
:1004400004930594902003A9C00500F079F90022D7
:100450000021052000F060F9052000F061F900227C
:100460000021062000F058F9062000F059F908B0E4
:1004700010BDC046001002400004004870B50500E1
:1004800000240DE00121A140074BEA009B181A5DF2
:10049000531E9A41D2B289B2044800F015FA0134D1
:1004A000072CEFDD70BDC046E00C000800040048DA
:1004B000054B18601A6805490868013AC2621B6852
:1004C000013BCB607047C046000000202C0000209C
:1004D00010B5024800F046FA10BDC0462C000020BE
:1004E00010B50268084B9A4200D010BD074C207826
:1004F00001300921FFF778FFC9B221702078C0B21E
:10050000FFF7BCFFF1E7C046004401407400002043
:1005100010B5012000F0DEF9022000F0DBF910BD7B
:1005200010B5042000F0D6F9082000F0D3F910BD72
:1005300010B5042817D008D8012810D0022811D1EE
:10054000FA20C000FFF7B4FF0CE008280AD1084BDE
:1005500000221A701878C0B2FFF790FF02E0642002
:10056000FFF7A6FF10BDFA208000FFF7A1FFF9E713
:100570007400002072B6FEE710B50F480F4B036001
:100580000F4B4360002383600E4A1268013AC26039
:10059000036143618033836100F0E4FA002808D1ED
:1005A00000220021152000F0B7F8152000F0B8F85F
:1005B00010BDFFF7DFFFC0462C00002000440140C3
:1005C0003F1F00000000002010B500F03DF8FFF7CD
:1005D00011FFFFF7D1FF024800F08AF9FEE7C0469D
:1005E0002C000020FEE7FEE77047704710B500F0D2
:1005F0003BF810BD7047000010B504000F4B197890
:10060000FA208000FFF780FD01000D4B1868FFF70E
:100610007BFD00F091F800280DD1032C01D90120B9
:100620000AE0013000222100404200F075F8054B3D
:100630001C60002000E0012010BDC0460800002022
:10064000040000200C00002010B5064A1368102199
:100650000B4313600320FFF7CFFF00F0B1FA002037
:1006600010BDC04600200240034A1168034B1B78AE
:100670005B1813607047C046780000200800002017
:1006800070B5002811DB8308134DC0339B005C5903
:1006900003221040C000FC3216008640B44389019A
:1006A0000A40824022435A5170BD0F230340083B49
:1006B0009B0806339B00094A944663445C68032206
:1006C0001040C000FC3215008540AC4389010A404F
:1006D000824022435A60E7E700E100E000ED00E0DD
:1006E000013880235B0498420FD2094A50600948C0
:1006F000036A1B021B0AC02109060B430362002385
:10070000936007331360002070470120FCE7C04668
:1007100010E000E000ED00E010B5FFF7B1FF10BD04
:10072000002805DB1F22024001239340014A136089
:100730007047C04600E100E010B5FFF7D1FF10BDE3
:10074000F0B583B0002356E086685F000324BC4008
:10075000A643CC68BC4034438460446894434E68EC
:100760003609012232409A402243426053E0DE08BB
:100770000836B600375805321A4092000F249440CC
:10078000A7430C69944022003A43325056E00326B6
:1007900000E00026A64034003C4302329200444E62
:1007A0009451444A9768EA433E00AE434C68E402E1
:1007B00001D53E002E433F4CA660E7683E00164040
:1007C0004C68A40201D53E002E433A4CE6606768AF
:1007D0003E0016404C68A40301D53E002E43354C24
:1007E0006660266832404C68E40301D52A00324333
:1007F000304C226001330C682200DA4056D00122CE
:100800009A40250015401442F4D04E680324344029
:10081000013C012C98D94C6803222240032A08D0BD
:10082000C4685E000322B24094438A68B240224307
:10083000C2604C6803222240022A98D004685E00FD
:1008400003221700B740BC434F683A40B2402243EE
:1008500002604C68C02292021442CBD0164CA669AA
:1008600001221643A661A46922400192019A9A08C6
:10087000941CA4000E4EA75903241C40A4000F266C
:10088000A640B7439026F605B04282D00B4EB04248
:1008900008D00B4EB04207D00A4EB04200D176E7E6
:1008A000052677E7012675E7022673E703B0F0BD5A
:1008B0000000014000040140001002400004004814
:1008C00000080048000C0048002A01D081617047F0
:1008D0008162FCE710B5054B5B69184200D110BD81
:1008E000024B5861FFF724FEF9E7C04600040140BF
:1008F0003D23C35C012B26D13C330222C254026843
:10090000D36801210B43D3600368114A93420FD08F
:100910008022D20593420BD00E4A934208D00E4A51
:10092000934205D01A6801210A431A6000200BE0A7
:10093000996807220A40062A07D01A6801210A434B
:100940001A60002000E0012070470020FCE7C0464C
:10095000002C0140000400400040014070477047F7
:100960007047704710B50400026813699B070FD5E4
:10097000D3689B070CD503235B42136104330377D1
:1009800003689B699B0763D0FFF7E9FF0023237788
:10099000226813695B0712D5D3685B070FD505235F
:1009A0005B4213610733237723689A69C0239B0056
:1009B0001A4253D02000FFF7D2FF0023237722688A
:1009C00013691B0710D5D3681B070DD509235B429C
:1009D00013610D3323772368DB699B0745D0200023
:1009E000FFF7BDFF0023237722681369DB0612D5CA
:1009F000D368DB060FD511235B42136119332377CC
:100A00002368DA69C0239B001A4235D02000FFF723
:100A1000A6FF0023237722681369DB0702D5D3687A
:100A2000DB0730D4226813691B0602D5D3681B0686
:100A300030D4226813695B0602D5D3685B0630D4D4
:100A4000226813699B0602D5D3689B0630D410BD7B
:100A5000FFF784FF2000FFF783FF97E72000FFF7F1
:100A60007DFF2000FFF77CFFA7E72000FFF776FF60
:100A70002000FFF775FFB5E72000FFF76FFF2000AC
:100A8000FFF76EFFC5E702235B4213612000FFF70B
:100A900027FDC7E781235B421361200000F08FF838
:100AA000C7E741235B4213612000FFF75AFFC7E706
:100AB00021235B421361200000F080F8C7E70000AB
:100AC0000368214A904206D08022D205904202D08B
:100AD0001E4A904203D1702293434A6813431A4A34
:100AE000904212D08022D20590420ED0174A9042F6
:100AF0000BD0174A904208D0164A904205D0164AA9
:100B0000904202D0154A904203D1154A1A40CB6850
:100B10001343802293434A69134303608B68C36283
:100B20000B688362084B984208D00A4B984205D064
:100B3000094B984202D0094B984201D10B690363DB
:100B4000012343617047C046002C0140000400406F
:100B500000200040004001400044014000480140A6
:100B6000FFFCFFFF70B5041E26D03D23C35C002BA5
:100B70001CD03D2502236355210001C9FFF7A0FFCA
:100B800001234622A354083AA3540132A35401324C
:100B9000A3540132A3540132A3540132A3540132AD
:100BA000A3540132A3546355002070BD3C3300228E
:100BB000C25400F01DF8DCE70120F6E770477047EB
:100BC00082B00A4B996901221143996199690A40DF
:100BD0000092009ADA69802149050A43DA61DB69EB
:100BE0000B400193019B02B07047C04600100240C9
:100BF00082B00268074B9A4201D002B07047064BA0
:100C00009A69802189020A439A619B690B4001938A
:100C1000019BF2E700440140001002400D48854668
:100C2000FFF7E8FC0C480D490D4A002302E0D458B8
:100C3000C4500433C4188C42F9D30A4A0A4C002326
:100C400001E013600432A242FBD300F019F8FFF771
:100C5000BBFCFEE700200020000000201000002068
:100C6000300D0008100000207C000020FEE703008B
:100C70008218934200D1704719700133F9E70000E0
:100C800070B500260C4C0D4D641BA410A64209D172
:100C9000002600F019F80A4C0A4D641BA410A64265
:100CA00005D170BDB300EB5898470136EEE7B300AD
:100CB000EB5898470136F2E7280D0008280D000888
:100CC0002C0D0008280D0008F8B5C046F8BC08BC7B
:100CD0009E467047F8B5C046F8BC08BC9E467047B3
:100CE00001010100010000010101000100000100FB
:100CF00001000100000100000001000001000000EF
:100D000001000001000000000000010000000000E0
:100D100000010000000000000100000000000000D1
:080D20000000000000000000CB
:040D2800E9000008D6
:040D2C00C1000008FA
:100D3000E803000000127A00010000000400000037
:0400000508000C1DC6
:00000001FF
